:1000000045C0000080C00000BBC00000F6C000007A
:1000100031C100006CC10000A7C10000E2C10000B6
:100020001DC2000048C0000046C0000044C00000DF
:1000300042C0000040C000003EC000003CC00000C4
:100040003AC0000038C0000036C0000034C00000D4
:1000500032C0000030C000002EC000002CC00000E4
:100060002AC0000028C0000026C0000024C00000F4
:1000700022C0000020C000001EC000001CC0000004
:100080001AC0000018C0000016C0000011241FBED6
:10009000CFEFD0E1DEBFCDBF11E0A0E0B1E0E6E5FB
:1000A000F5E000E00BBF02C007900D92A231B1074E
:1000B000D9F702D04EC2A4CF88E082B911BA10920B
:1000C0008B0089E180938A0010928C001092890045
:1000D000109288008FEF8ABF80936A0089BF88BF23
:1000E0007894809100018823E1F32FEF8FEF9CE259
:1000F000215080409040E1F700C0000010928B003A
:1001000010920001EECF1F920F920FB60F921124A2
:100110000BB60F922F933F934F935F936F937F9301
:100120008F939F93AF93BF93EF93FF93F894209196
:1001300001013091020140E050E060E070E48BE0AA
:1001400090E0C9D1309381002093800080E48093B7
:100150008B0081E0809300017894FF91EF91BF9133
:10016000AF919F918F917F916F915F914F913F914F
:100170002F910F900BBE0F900FBE0F901F901895F0
:100180001F920F920FB60F9211240BB60F922F935E
:100190003F934F935F936F937F938F939F93AF930F
:1001A000BF93EF93FF93F8942091030130910401E2
:1001B00040E050E060E070E48BE090E08CD1309360
:1001C00081002093800080E480938B0081E0809305
:1001D00000017894FF91EF91BF91AF919F918F9122
:1001E0007F916F915F914F913F912F910F900BBE37
:1001F0000F900FBE0F901F9018951F920F920FB681
:100200000F9211240BB60F922F933F934F935F934E
:100210006F937F938F939F93AF93BF93EF93FF93CE
:10022000F894209105013091060140E050E060E033
:1002300070E48BE090E04FD13093810020938000F8
:1002400080E480938B0081E0809300017894FF919B
:10025000EF91BF91AF919F918F917F916F915F913E
:100260004F913F912F910F900BBE0F900FBE0F90AB
:100270001F9018951F920F920FB60F9211240BB674
:100280000F922F933F934F935F936F937F938F932F
:100290009F93AF93BF93EF93FF93F894209107013F
:1002A0003091080140E050E060E070E48BE090E0C5
:1002B00012D1309381002093800080E480938B00E2
:1002C00081E0809300017894FF91EF91BF91AF910D
:1002D0009F918F917F916F915F914F913F912F915E
:1002E0000F900BBE0F900FBE0F901F9018951F928E
:1002F0000F920FB60F9211240BB60F922F933F93CC
:100300004F935F936F937F938F939F93AF93BF931D
:10031000EF93FF93F8942091090130910A0140E096
:1003200050E060E070E48BE090E0D5D03093810045
:100330002093800080E480938B0081E08093000113
:100340007894FF91EF91BF91AF919F918F917F91A1
:100350006F915F914F913F912F910F900BBE0F9036
:100360000FBE0F901F9018951F920F920FB60F920D
:1003700011240BB60F922F933F934F935F936F937C
:100380007F938F939F93AF93BF93EF93FF93F894D3
:1003900020910B0130910C0140E050E060E070E4EE
:1003A0008BE090E098D0309381002093800080E42F
:1003B00080938B0081E0809300017894FF91EF910E
:1003C000BF91AF919F918F917F916F915F914F916D
:1003D0003F912F910F900BBE0F900FBE0F901F906B
:1003E00018951F920F920FB60F9211240BB60F9211
:1003F0002F933F934F935F936F937F938F939F932D
:10040000AF93BF93EF93FF93F89420910D01309138
:100410000E0140E050E060E070E48BE090E05BD0E3
:10042000309381002093800080E480938B0081E0F2
:10043000809300017894FF91EF91BF91AF919F91CC
:100440008F917F916F915F914F913F912F910F907D
:100450000BBE0F900FBE0F901F9018951F920F921A
:100460000FB60F9211240BB60F922F933F934F9319
:100470005F936F937F938F939F93AF93BF93EF930C
:10048000FF93F89420910F013091100140E050E06B
:1004900060E070E48BE090E01ED030938100209308
:1004A000800080E480938B0081E080930001789449
:1004B000FF91EF91BF91AF919F918F917F916F913C
:1004C0005F914F913F912F910F900BBE0F900FBEF8
:1004D0000F901F901895052E97FB16F400940FD0DF
:1004E00057FD05D014D007FC02D046F408C0509543
:1004F0004095309521953F4F4F4F5F4F0895909510
:100500008095709561957F4F8F4F9F4F0895A1E221
:100510001A2EAA1BBB1BFD010DC0AA1FBB1FEE1F7D
:10052000FF1FA217B307E407F50720F0A21BB30BC8
:10053000E40BF50B661F771F881F991F1A9469F744
:1005400060957095809590959B01AC01BD01CF01A0
:060550000895F894FFCFAE
:10055600010B024B029302BA020F037003DB031670
:0205660004008F
:00000001FF
