:1000000045C0000058C0000056C0000054C00000A9
:1000100052C0000050C000004EC000004CC00000A4
:100020004AC0000048C0000046C0000044C00000B4
:1000300042C0000040C000003EC000003CC00000C4
:100040003AC0000038C0000036C0000034C00000D4
:1000500032C0000030C000002EC000002CC00000E4
:100060002AC0000028C0000026C0000024C00000F4
:1000700022C0000020C000001EC000001CC0000004
:100080001AC0000018C0000016C0000011241FBED6
:10009000CFEFD0E1DEBFCDBF11E0A0E0B1E0EAE2FA
:1000A000F2E000E00BBF02C007900D92A031B10753
:1000B000D9F707D0B8C0A4CF5F9BFECF8CB15F9AB1
:1000C00008958EE082B980E887BB8FB58A608FBDC6
:1000D0008EB589618EBD80917A0080937A001DBCB7
:1000E0001CBC1BB888E18AB986E080939500109209
:1000F000900083E089B96AE070E077BD66BD86B59F
:1001000097B53FD07093790060937800C12C90E848
:10011000D92E90E7E92EF12CCAE0D0E0CDDF90EDAA
:10012000980F9830D8F7E82FF0E0EE0FFF1FE05659
:10013000FF4F2081318140E050E0C701B60135D04A
:1001400037BD26BD86B597B5BE011BD0709379002B
:10015000609378002FEF8FE39BE021508040904028
:10016000E1F700C000008FB58A608FBDD7BDC6BD66
:1001700086B597B5BE0105D070937900609378007D
:10018000CDCFAA1BBB1B51E107C0AA1FBB1FA617DF
:10019000B70710F0A61BB70B881F991F5A95A9F730
:1001A00080959095BC01CD010895052E97FB16F41E
:1001B00000940FD057FD05D014D007FC02D046F4B0
:1001C00008C050954095309521953F4F4F4F5F4F58
:1001D000089590958095709561957F4F8F4F9F4FB3
:1001E0000895A1E21A2EAA1BBB1BFD010DC0AA1F78
:1001F000BB1FEE1FFF1FA217B307E407F50720F090
:10020000A21BB30BE40BF50B661F771F881F991F0A
:100210001A9469F760957095809590959B01AC0153
:0A022000BD01CF010895F894FFCF4F
:10022A000B024B029302BA020F037003DB0316049C
:00000001FF
